:1000000045C0000060C000005EC000005CC0000091
:100010005AC0000058C0000056C0000054C0000084
:1000200052C0000050C000004EC000004CC0000094
:100030004AC00000C5C0000046C0000044C0000027
:1000400042C0000040C000003EC000003CC00000B4
:100050003AC0000038C0000036C0000034C00000C4
:1000600032C0000030C000002EC000002CC00000D4
:100070002AC0000028C0000026C0000024C00000E4
:1000800022C0000020C000001EC0000011241FBEBE
:10009000CFEFD0E4DEBFCDBF11E0A0E0B1E0EEE1F4
:1000A000F3E000E00BBF02C007900D92A631B1074C
:1000B000D9F721E0A6E1B1E001C01D92AB31B20752
:1000C000E1F7D1D02AC19CCF181619065CF008952B
:1000D000000021503109E1F74F5F5F4F841795070A
:1000E00019F4089540E050E027E033E0F1CF5E9846
:1000F00088B95F9A00005F9882E090E0E5CF0895AC
:1001000081E0F5CF0895813118F48158F0CF08953A
:100110008155EDCF089584E690E0D6DF88E3E7DFF0
:1001200086E0E5DF8FE0E3DF81E0E1DF8AE090E079
:10013000CBCF08955E9A88B95F9A00005F9881E0FE
:1001400090E0C2CF08950F931F93CF93DF93182FA2
:10015000EB01D6DF8881882351F001E0010F812F68
:10016000D2DF8991E7DF102F88818111F6CFDF91EF
:10017000CF911F910F9108958BE0809381008DE7BF
:1001800090E0909389008093880082E080936F00D4
:1001900010928500109284008091000190910101DD
:1001A000A0910201B0910301809316019093170171
:1001B000A0931801B09319018FB780688FBF08957D
:1001C0001F920F920FB60F9211248F939F93AF93AC
:1001D000BF938091160190911701A0911801B091E1
:1001E00019010197A109B109809316019093170194
:1001F000A0931801B0931901892B8A2B8B2B99F4AA
:1002000081E080931A018091000190910101A091F9
:100210000201B09103018093160190931701A093FE
:100220001801B0931901BF91AF919F918F910F90D9
:100230000FBE0F901F9018956093000170930101FD
:10024000809302019093030160931601709317014C
:1002500080931801909319010895EAE7F0E08081F6
:10026000806E8083089511B88FEF82B987B918B86E
:100270008AB91BB881DF64EF71E080E090E0DCDFD9
:10028000ECDFD0B048DF00E010E00F2EF8E7EF2EF3
:10029000F12CF02DBB24B394C12CF701C081D18186
:1002A0000115110519F0DC1209C002C00B2D1C2D1F
:1002B00064E071E081E047DFDC2E28C0CE019927A1
:1002C0002D2D30E0A9014C5E5F4F4817590754F4BB
:1002D000425E5F4F841795072CF46BE071E081E07C
:1002E00032DF14C0A90142545F4F4817590754F434
:1002F00028533F4F821793072CF460E171E081E0AF
:1003000022DF04C064E071E081E01DDF80911A010A
:0E0310008823E1F310921A01C0CFF894FFCFBA
:10031E000100000043656E746572004C65667400E2
:06032E00526967687400CB
:00000001FF
