S00F000050726F6A6563742E737265633E
S113000050C000006BC0000069C0000067C0000061
S113001065C0000063C0000061C000005FC0000054
S11300205DC000005BC0000059C0000057C0000064
S113003055C000007EC0000051C000004FC0000049
S11300404DC000004BC0000049C0000047C0000084
S113005045C0000043C0000041C000003FC0000094
S11300603DC000003BC0000039C0000037C00000A4
S113007035C0000033C0000031C000002FC00000B4
S11300802DC000002BC0000029C00000E7021C03A3
S11300904E032804340440044C04580464047004DB
S11300A07C0411241FBECFEFD0E4DEBFCDBF11E02E
S11300B0A0E0B1E0EEE8FAE000E00BBF02C0079078
S11300C00D92AC32B107D9F721E0ACE2B1E001C046
S11300D01D92AE3CB207E1F78ED4D7C491CFEAE7C4
S11300E0F0E08081806E808308958BE080938100AE
S11300F08DE790E0909389008093880082E080935C
S11301006F001092850010928400809100019091FC
S11301100101A0910201B091030180932C019093FD
S11301202D01A0932E01B0932F018FB780688FBF4C
S113013008951F920F920FB60F9211248F939F93DD
S1130140AF93BF9380912C0190912D01A0912E012A
S1130150B0912F010197A109B10980932C019093CB
S11301602D01A0932E01B0932F01892B8A2B8B2B69
S113017099F481E080933401809100019091010110
S1130180A0910201B091030180932C0190932D0161
S1130190A0932E01B0932F01BF91AF919F918F91A6
S11301A00F900FBE0F901F901895609300017093ED
S11301B00101809302019093030160932C017093D9
S11301C02D0180932E0190932F0108958091CB01EE
S11301D0813009F0B3C04091390150913A014F5F29
S11301E05F4F50933A01409339019A01ADECBCEC56
S11301F03DD496958795969587959C01220F331F3C
S1130200220F331F820F931F4817590749F4809117
S1130210370190913801019690933801809337010A
S113022080913701909138018536910508F486C094
S113023010923A011092390110923801109237014C
S113024080917800909179009093CD018093CC01B6
S11302509093400180933F0180933E0120913B01A4
S113026030913C01232B49F480933D0181E090E0DF
S113027090933C0180933B0104C020913D01821383
S113028004C083E6809304010895992730E0A9010E
S11302904C5E5F4F4817590724F5425E5F4F841741
S11302A09507FCF48091350190913601009709F48B
S11302B045C09C0121503109880F991FFC01E95B5D
S11302C0FE4F80819181D901AA0FBB1FA95BBE4F4C
S11302D08D939C93118210823093360120933501C3
S11302E00895A90142545F4F4817590724F528532C
S11302F03F4F82179307FCF48091350190913601AA
S113030086309105D9F09C012F5F3F4F880F991FCC
S1130310FC01E95BFE4F80819181D901AA0FBB1FCB
S1130320A95BBE4F8D939C9311821082309336014A
S113033020933501089583E6809304010895FF9284
S11303400F931F93CF93DF938091C9018230B9F04B
S1130350833021F0813009F01CC120C020910501B7
S113036030910601409146010091430110914401EE
S1130370C7EBD1E067E471E0F22E532FC7C02091A0
S1130380410130914201F901EE0FFF1FE954FE4F84
S113039080819181892B09F044C050C04091320181
S11303A0509133014F5F5F4F5093330140933201BB
S11303B09A01ADECBCEC5AD39695879596958795A2
S11303C09C01220F331F220F331F820F931F4817E4
S11303D0590749F48091300190913101019690932D
S11303E03101809330018091300190913101853643
S11303F0910508F4CEC01092310110923001109290
S11304003301109232010299C4C082E08093C90181
S1130410809135019091360190934201809341017E
S1130420B8C0F901EE0FFF1FE955FE4F86E090E0DA
S113043040815181452B09F04DC002C087E090E016
S113044040910701473611F5FC01EE0FFF1FEE0F37
S1130450FF1FEE0FFF1FE20FF31FEE0FFF1FE95BFD
S1130460FE4F81E090E09183808342E7409307014F
S11304709093060180930501220F331FF901E95B74
S1130480FE4F82E090E09183808329C0423739F5A2
S1130490FC01EE0FFF1FEE0FFF1FEE0FFF1FE20F19
S11304A0F31FEE0FFF1FE95BFE4F82E090E09183A4
S11304B0808347E6409307019093060180930501EA
S11304C0220F331FF901E95BFE4F81E090E0918335
S11304D0808305C001977097009709F0A9CF83E046
S11304E08093C90156C0819191918217930731F489
S11304F04F5F443020F00F2D152F01C040E0EA1764
S1130500FB0789F76097C617D70721F0DE015096DD
S1130510FE01E9CF10934401009343014093460147
S11305202017310721F48AE08093CA0132C0109267
S11305304601409145015091CA01A7E5B1E0F22E70
S1130540D32FCAE017C0808191812817390721F47D
S11305504F5F443010F006C040E07097E617F7078D
S113056091F703C00F2D1D2F5C2F6E5F7F4F6A170D
S11305707B0721F0FB01E059FF4FE5CF10934401C5
S1130580009343015093CA011092450181E0809386
S1130590C901DF91CF911F910F91FF9008958F9220
S11305A09F92AF92BF92CF92DF92EF92FF920F93FE
S11305B01F93CF93DF93E091CA018E2F90E08B308D
S11305C0910508F009C2FC01EA5BFF4F46C2809125
S11305D0C8018F5F8093C8018FEF88B98CE385B918
S11305E083EC8BB99091C8018DEC989F812D1124D7
S11305F086958695282F220F220F820F981305C007
S11306008091C7018F5F8093C7018091C7018536B0
S113061008F4E4C11092C7011092C80181E08093EC
S1130620CA010299DBC182E08093CA0181E0809310
S1130630C9018093CB01D2C18091C8018F5F80939F
S1130640C8018FEF88B915B88BB99091C8018DECAA
S1130650989F812D112486958695282F220F220F8D
S1130660820F981305C08091C7018F5F8093C701E3
S11306708091C701853608F4B1C11092C801109267
S1130680C7011092CA010299A9C182E08093CA01EC
S113069081E08093C9018093CB01A0C19091C801EE
S11306A09F5F9093C8018DEC989F812D11248695AE
S11306B08695282F220F220F820F981305C0809150
S11306C0C7018F5F8093C7018091C701853608F405
S11306D044C01092C7011092C80103997FC181E000
S11306E08093CB0127EB31E047E451E00AC011923B
S11306F01192E817F907D9F7205131094217530726
S113070021F0C9014096F901F2CFE0914101F09145
S11307104201EE0FFF1FE95BFE4F1182108210921F
S1130720360110923501109242011092410181E08C
S113073090E0909348018093470127E620930701B6
S11307409093060180930501109244011092430195
S11307501092CA011092C90141C115B88FEF8BB92B
S113076088B9EEE1F1E08FEF90E091838083938389
S113077082839583848397838683918780879387F5
S1130780828795878487E0E1F1E091838083938376
S113079082839583848397838683918780879387D5
S11307A082879587848707E411E0CEE1D1E00F2E9C
S11307B0FCE2CF2EF1E0DF2EF02D78010F2EF8E0D1
S11307C0AF2EF1E0BF2EF02D20E131E01EC08D915F
S11307D09C911197019741F4808190E0688179811F
S11307E08623972399838883509631962E173F0743
S11307F071F782E0E80EF11C2296CC15DD0529F490
S1130800C0E1D1E02EE131E01FC09A2C8B2CA9016C
S1130810E8E0F1E0D701DBCF8D919C91119702972D
S113082041F4808190E068817981862397239983BC
S1130830888350963196E417F50771F70E5F1F4FC2
S11308402296C217D30721F0E92DF82DD801E4CF61
S113085081E085B98091100188B980911E018BB91E
S113086084E08093CA01BAC082E085B98091120104
S113087088B9809120018BB985E08093CA01AEC00C
S113088084E085B98091140188B9809122018BB9E3
S113089086E08093CA01A2C088E085B980911601E0
S11308A088B9809124018BB987E08093CA0196C0EE
S11308B080E185B98091180188B9809126018BB9AE
S11308C088E08093CA018AC080E285B980911A01C8
S11308D088B9809128018BB989E08093CA017EC0D0
S11308E080E485B980911C0188B980912A018BB973
S11308F082E08093CA0172C0809105019091060143
S1130900019729F48FEF85B988B91BB804C08FEF1C
S113091085B98BB918B89091C8019F5F9093C801AD
S11309201092C9011092CB018DEC989F812D112456
S113093086958695282F220F220F820F981305C0C3
S11309408091C7018F5F8093C7018091C70185366D
S113095008F444C01092C7011092C80103993EC024
S113096081E08093CB0127EB31E047E451E00AC0FA
S113097011921192E817F907D9F720513109241778
S1130980350721F0C9014096F901F2CFE091410108
S1130990F0914201EE0FFF1FE95BFE4F11821082BE
S11309A010923601109235011092420110924101C9
S11309B081E090E0909348018093470127E62093DB
S11309C0070190930601809305011092440110924F
S11309D043011092CA0102C01092CA01DF91CF9163
S11309E01F910F91FF90EF90DF90CF90BF90AF9049
S11309F09F908F90089511B88FEF82B984B915B87C
S1130A008AB91BB887B918B861E070E080E090E05B
S1130A10CCDB6BDB1092CA011092C90181E0809398
S1130A20CB015DDB80B1282F30E03093400120936F
S1130A303F0180933E0180933D0181E090E09093DB
S1130A40480180934701C2DB7ADCA9DD809134013F
S1130A508823E1F310923401F6CFEE0FFF1F002438
S1130A60001C0BBE0790F691E02D0994A29FB001E3
S1130A70B39FC001A39F700D811D1124911DB29FCE
S1110A80700D811D1124911D0895F894FFCF6F
S1130A8E0100000063010067FEFDFBF7EFDFBF7F8F
S1130A9EFF00FF00FF00FF00FF00FF00FF00FF004C
S10F0AAEFF00FF00FF00FF00FF00FF003E
S9030000FC
