:1000000045C0000060C000005EC000005CC0000091
:100010005AC0000058C0000056C0000054C0000084
:1000200052C0000050C000004EC000004CC0000094
:100030004AC000006DC0000046C0000044C000007F
:1000400042C0000040C000003EC000003CC00000B4
:100050003AC0000038C0000036C0000034C00000C4
:1000600032C0000030C000002EC000002CC00000D4
:100070002AC0000028C0000026C0000024C00000E4
:1000800022C0000020C000001EC0000011241FBEBE
:10009000CFEFD0E4DEBFCDBF11E0A0E0B1E0E8EFEC
:1000A000F2E000E00BBF02C007900D92A430B10750
:1000B000D9F721E0A4E0B1E001C01D92A930B20758
:1000C000E1F773D017C19CCF8BE0809381008DE75F
:1000D00090E0909389008093880082E080936F0085
:1000E000109285001092840080910001909101018E
:1000F000A0910201B0910301809304019093050146
:10010000A0930601B09307018FB780688FBF089551
:100110001F920F920FB60F9211248F939F93AF935C
:10012000BF938091040190910501A0910601B091C7
:1001300007010197A109B10980930401909305017A
:10014000A0930601B0930701892B8A2B8B2B99F47E
:1001500081E0809308018091000190910101A091BC
:100160000201B09103018093040190930501A093D3
:100170000601B0930701BF91AF919F918F910F90AE
:100180000FBE0F901F9018956093000170930101AE
:100190008093020190930301609304017093050121
:1001A000809306019093070108958FEF84B915B8E5
:1001B0008AB91BB862E370E080E090E0E5DF84DF9D
:1001C0004EEF91E0792F6FE752E04BB9E8E0F0E0B5
:1001D00075B9809108018823E1F31092080185B177
:1001E000880F85B927E030E0809108018823E1F38A
:1001F0001092080185B1880F85B921503109A1F706
:100200008BB1880F8BB98BB18F5F8BB9809108014F
:100210008823E1F3109208013197D1F666C095B9B1
:100220006BB9309741F09F018BB186958BB95F9A7E
:1002300021503109C9F7809108018823E1F3109218
:10024000080128E030E085B1880F85B98BB180388E
:1002500031F08BB1880F8BB98BB18F5F8BB92130A7
:10026000310549F0809108018823E1F310920801DB
:100270002150310941F73196E830F10581F630C05F
:1002800055B94BB9309739F09F0185B1880F85B9C1
:1002900021503109D1F7809108018823E1F31092B0
:1002A000080128E030E085B1803849F085B1880F39
:1002B00085B98BB1880F8BB98BB18F5F8BB921302A
:1002C000310549F0809108018823E1F3109208017B
:1002D0002150310941F73196E830F10589F675CFA3
:1002E00055B94BB9E0E0F0E0D6CF95B96BB9E0E095
:0802F000F0E0A1CFF894FFCF6C
:0402F8000100000001
:00000001FF
